S01700005265616C5F54696D655F636C6F636B2E7372656330
S11300000C942A000C94CD050C94F4050C941B0656
S11300100C9447000C94B2060C9447000C944700CF
S11300200C9447000C9447000C9466060C9447000B
S11300300C9447000C9447000C9447000C94470020
S11300400C9447000C9447000C9447000C94470010
S11300500C94470011241FBECFE5D8E0DEBFCDBF0E
S113006010E0A0E6B0E0E6EBFDE002C005900D92E2
S1130070A43AB107D9F720E0A4EAB0E001C01D9288
S1130080A23BB207E1F70E946A030C94D9060C94D0
S1130090000040E00E94DF0408950E944305089593
S11300A040E064E081E40E94A20340E065E081E472
S11300B00E94A20340E066E081E40E94A203089546
S11300C0CF93C82F482F417064E081E40E9412044A
S11300D04C2F427050E05595479565E081E40E94AD
S11300E01204C4704C2F50E055954795559547958B
S11300F066E081E40E941204CF91089540E060E03C
S113010083E40E94A20340E061E083E40E94A2032E
S113011040E062E083E40E94A20340E063E083E401
S11301200E94A20341E064E083E40E94A20341E050
S113013065E083E40E94A20341E066E083E40E9458
S1130140A20341E067E083E40E94A20364E083E445
S11301500E94960565E083E40E94960566E083E4C8
S11301600E94960567E083E40E9496050895CF9265
S1130170DF92EF92FF920F931F93CF93DF93CDB74C
S1130180DEB760970FB6F894DEBF0FBECDBF80E137
S1130190E0E6F0E0DE01119601900D928A95E1F718
S11301A0C12CD12CFF24F394EE24EA943EC041E008
S11301B060E083E40E94120441E061E083E40E9471
S11301C0120441E062E083E40E94120441E063E02F
S11301D083E40E94120440E06C2D83E40E94120424
S11301E000E010E01AC064E0600F83E40E9482041F
S11301F0F82E811110C0C601880F991F880F991F0E
S113020021E030E02C0F3D1F820F931FFC01E00F13
S1130210F11FE08005C00F5F1F4F043011051CF370
S1130220FF2041F03FEFC31AD30A84E0C816D1047B
S11302300CF4BDCF8E2D60960FB6F894DEBF0FBEC2
S1130240CDBFDF91CF911F910F91FF90EF90DF9081
S1130250CF90089541E060E082E40E9412048FE9A7
S11302609FE00197F1F700C0000040E060E082E405
S11302700E9412048FE99FE00197F1F700C000008B
S11302800895CF93C82F482F42954F7061E082E4C0
S11302900E94430540E062E082E40E9412040E944E
S11302A02A014C2F61E082E40E94430540E062E0B1
S11302B082E40E9412040E942A018FEC97E00197C5
S11302C0F1F700C00000CF9108952FEF81EE94E084
S11302D0215080409040E1F700C0000040E061E020
S11302E082E40E94DF0440E060E082E40E94A20312
S11302F040E061E082E40E94A20340E062E082E424
S11303000E94A20340E061E082E40E94120482E0C1
S11303100E9441018FE19EE40197F1F700C00000C3
S113032088E20E9441018FEC97E00197F1F700C049
S113033000008EE00E9441018FEC97E00197F1F7F5
S113034000C0000081E00E9441018FE19EE401971A
S1130350F1F700C0000086E00E9441018FEC97E0B5
S11303600197F1F700C000000895CF93C82F482FDC
S113037042954F7061E082E40E94430541E062E0EF
S113038082E40E9412040E942A014C2F61E082E45C
S11303900E94430541E062E082E40E9412040E944C
S11303A02A018FEC97E00197F1F700C00000CF918C
S11303B00895CF93DF93EC0103C00E94B501219609
S11303C088818111FACFDF91CF91089581E00E9455
S11303D041018FE19EE40197F1F700C00000089508
S11303E09FEF980F923078F4662369F0613158F4E6
S11303F0813029F48FE7860F0E94410104C08FEBFE
S1130400860F0E9441018FEC97E00197F1F700C03D
S1130410000008958091B1008F5F8093B1008091B6
S1130420B1008C3338F01092B1008091AF008F5F2F
S11304308093AF008091AF008C3338F01092AF00FE
S11304408091B0008F5F8093B0008091B0008831BC
S113045010F01092B00008958091A400863011F439
S11304601092A4008091A4000E9460008091A400D6
S1130470823081F128F4882359F08130E9F06DC08D
S1130480843009F449C0D0F1853009F459C065C0FD
S11304904091B1008DEC489F812D1124869586955D
S11304A08695880F982F990F990F890F481B60E044
S11304B081E40E944D0051C08091B1004DEC849FB5
S11304C0412D112446954695469560E081E40E94AD
S11304D04D0043C04091AF008DEC489F812D112405
S11304E0869586958695880F982F990F990F890F71
S11304F0481B60E081E40E944D002FC08091AF0052
S11305004DEC849F412D112446954695469560E017
S113051081E40E944D0021C04091B0008DEC489FC1
S1130520812D1124869586958695880F982F990F8D
S1130530990F890F481B60E081E40E944D000DC0B3
S11305408091B0004DEC849F412D11244695469531
S1130550469560E081E40E944D008091A4008F5F85
S11305608093A4000895CF930E94E60180E790E071
S11305700E94D90167E081E00E94F0010E94B70067
S1130580C82F2FEF81EE94E0215080409040E1F796
S113059000C00000CF3F91F38C2F0E94B5018C2F37
S11305A090E0C097880F982F990F990F890F809327
S11305B0B0000E94B700C82F2FEF81EE94E02150C5
S11305C080409040E1F700C00000CF3F91F38C2FB2
S11305D00E94B5018091B000C80FC053C093B00011
S11305E00E94E60189E790E00E94D90169E081E078
S11305F00E94F0010E94B700C82F2FEF81EE94E013
S1130600215080409040E1F700C00000CF3F91F3BB
S11306108C2F0E94B5018C2F90E0C097880F982FE3
S1130620990F990F890F8093AF000E94B700C82FCC
S11306302FEF81EE94E0215080409040E1F700C01C
S11306400000CF3F91F38C2F0E94B5018091AF0041
S1130650C80FC053C093AF000E94E60184E890E045
S11306600E94D90169E081E00E94F0010E94B70074
S1130670C82F2FEF81EE94E0215080409040E1F7A5
S113068000C00000CF3F91F38C2F0E94B5018C2F46
S113069090E0C097880F982F990F990F890F809336
S11306A0B1000E94B700C82F2FEF81EE94E02150D3
S11306B080409040E1F700C00000CF3F91F38C2FC1
S11306C00E94B5018091B100C80FC053C093B1001E
S11306D0CF9108950E9442060E945A068CE292E04D
S11306E00E9461060E948D060E94A6068AE092E09E
S11306F00E94AD0660E081E40E9449000E9450001F
S11307000E947E000E9465010E94E6018FE890E04D
S11307100E94D90161E082E00E94F00189E990E041
S11307200E94D9010E94B7002FEF31EE94E02150CE
S113073030409040E1F700C00000813499F70E94F6
S1130740B302E2CF823419F118F4813439F00895F8
S11307508334B1F1843409F44CC0089541110BC0C1
S11307602AB381E090E002C0880F991F6A95E2F7EE
S1130770822B8ABB08952AB381E090E002C0880FDF
S1130780991F6A95E2F7809582238ABB08954111E7
S11307900BC027B381E090E002C0880F991F6A95CF
S11307A0E2F7822B87BB089527B381E090E002C073
S11307B0880F991F6A95E2F78095822387BB089575
S11307C041110BC024B381E090E002C0880F991F4F
S11307D06A95E2F7822B84BB089524B381E090E00C
S11307E002C0880F991F6A95E2F78095822384BB23
S11307F0089541110BC021B381E090E002C0880F3D
S1130800991F6A95E2F7822B81BB089521B381E099
S113081090E002C0880F991F6A95E2F780958223C1
S113082081BB0895823419F118F4813439F00895A4
S11308308334B1F1843409F44CC00895413059F43F
S11308402BB381E090E002C0880F991F6A95E2F70C
S1130850822B8BBB08952BB381E090E002C0880FFC
S1130860991F6A95E2F7809582238BBB08954130E6
S113087059F428B381E090E002C0880F991F6A956B
S1130880E2F7822B88BB089528B381E090E002C090
S1130890880F991F6A95E2F78095822388BB089593
S11308A0413059F425B381E090E002C0880F991FCC
S11308B06A95E2F7822B85BB089525B381E090E029
S11308C002C0880F991F6A95E2F78095822385BB41
S11308D00895413059F422B381E090E002C0880FBA
S11308E0991F6A95E2F7822B82BB089522B381E0B7
S11308F090E002C0880F991F6A95E2F780958223E1
S113090082BB08958234E9F018F4813431F055C083
S1130910833459F18434E9F150C049B381E090E063
S11309209C01062E02C0220F331F0A94E2F7842F83
S113093090E08223932302C0959587956A95E2F708
S1130940089546B381E090E09C01062E02C0220F78
S1130950331F0A94E2F7842F90E08223932302C08A
S1130960959587956A95E2F7089543B381E090E001
S11309709C01062E02C0220F331F0A94E2F7842F33
S113098090E08223932302C0959587956A95E2F7B8
S1130990089540B381E090E09C01062E02C0220F2E
S11309A0331F0A94E2F7842F90E08223932302C03A
S11309B0959587956A95E2F7089580E008958234C5
S11309C001F118F4813439F00895833481F18434C9
S11309D009F443C0089561110AC0411104C08AB3E7
S11309E08F608ABB08958AB3807F8ABB08954111C2
S11309F004C08AB3806F8ABB08958AB38F708ABBA0
S1130A00089561110AC0411104C087B38F6087BB88
S1130A10089587B3807F87BB0895411104C087B3CD
S1130A20806F87BB089587B38F7087BB089561116A
S1130A300AC0411104C084B38F6084BB089584B399
S1130A40807F84BB0895411104C084B3806F84BB4C
S1130A50089584B38F7084BB089561110AC0411155
S1130A6004C081B38F6081BB089581B3807F81BB53
S1130A700895411104C081B3806F81BB089581B38F
S1130A808F7081BB08958234D9F018F4813431F029
S1130A900895833439F18434B9F10895611107C09C
S1130AA08BB3807F8BBB8BB3482B4BBB0895429594
S1130AB0407F8BB38F708BBB8BB3482B4BBB08959C
S1130AC0611107C088B3807F88BB88B3482B48BBBB
S1130AD008954295407F88B38F7088BB88B3482BB4
S1130AE048BB0895611107C085B3807F85BB85B37A
S1130AF0482B45BB08954295407F85B38F7085BBD5
S1130B0085B3482B45BB0895611107C082B3807F2C
S1130B1082BB82B3482B42BB08954295407F82B387
S1130B208F7082BB82B3482B42BB08958234A1F0FC
S1130B3018F4813431F008958334C9F0843411F108
S1130B4008952BB381E090E002C0880F991F6A9545
S1130B50E2F7822B8BBB089528B381E090E002C0BA
S1130B60880F991F6A95E2F7822B88BB089525B3F5
S1130B7081E090E002C0880F991F6A95E2F7822B0A
S1130B8085BB089522B381E090E002C0880F991FCD
S1130B906A95E2F7822B82BB08951F920F920FB6DB
S1130BA00F9211242F933F934F935F936F937F93EF
S1130BB08F939F93AF93BF93EF93FF93E091A9001B
S1130BC0F091AA000995FF91EF91BF91AF919F9188
S1130BD08F917F916F915F914F913F912F910F90E2
S1130BE00FBE0F901F9018951F920F920FB60F9281
S1130BF011242F933F934F935F936F937F938F931E
S1130C009F93AF93BF93EF93FF93E091A700F0916D
S1130C10A8000995FF91EF91BF91AF919F918F919A
S1130C207F916F915F914F913F912F910F900FBEE4
S1130C300F901F9018951F920F920FB60F921124C8
S1130C402F933F934F935F936F937F938F939F93D0
S1130C50AF93BF93EF93FF93E091A500F091A600AB
S1130C600995FF91EF91BF91AF919F918F917F91E2
S1130C706F915F914F913F912F910F900FBE0F9005
S1130C801F90189583B7816083BF83B78D7F83BF1F
S1130C9083B7846083BF83B78F7B83BF83B7886048
S1130CA083BF83B78F7E83BF83B78F7D83BF8CE37E
S1130CB08CBF08958FB780688FBF89B7826089BF62
S1130CC008959093AC008093AB0008951F920F9207
S1130CD00FB60F9211242F933F934F935F936F930B
S1130CE07F938F939F93AF93BF93EF93FF93E09181
S1130CF0AB00F091AC000995FF91EF91BF91AF91DA
S1130D009F918F917F916F915F914F913F912F911F
S1130D100F900FBE0F901F90189582B5886082BD0A
S1130D2085B5816085BD85B58D7F85BD85B58460BC
S1130D3085BD85B58F7B85BD85B5877F85BD85B52B
S1130D408F7E85BD85B58F7D85BD08958FB78068FD
S1130D508FBF89B7806489BF08959093AE00809354
S1130D60AD0008951F920F920FB60F9211242F9386
S1130D703F934F935F936F937F938F939F93AF931F
S1130D80BF93EF93FF93E091AD00F091AE0009950E
S1130D90FF91EF91BF91AF919F918F917F916F914F
S1130DA05F914F913F912F910F900FBE0F901F9025
S1090DB01895F894FFCF32
S1130DB63738392F3435362A3132332D41303D2BED
S1130DC6486F7572733A5F5F004D696E757465732B
S1130DD63A5F5F005365636F6E64733A5F5F0050FA
S1130DE6726573732027412700546F205570646120
S1070DF6746500001C
S9030000FC
