:100000000C942A000C9447000C9447000C94470071
:100010000C9447000C9442070C9447000C94470042
:100020000C9447000C9447000C94F6060C9447007F
:100030000C9447000C9447000C9447000C94470024
:100040000C9447000C9447000C9447000C94470014
:100050000C94470011241FBECFE5D8E0DEBFCDBF12
:1000600010E0A0E6B0E0E6EDFEE002C005900D92E3
:10007000A63AB107D9F720E0A6EAB0E001C01D9288
:10008000A43BB207E1F70E9430040C9469070C947A
:10009000000040E00E94E40508950E94480608958B
:1000A00040E064E081E40E94A70440E065E081E470
:1000B0000E94A70440E066E081E40E94A70408953E
:1000C000CF93C82F482F417064E081E40E94170548
:1000D0004C2F427050E05595479565E081E40E94B1
:1000E0001705C4704C2F50E0559547955595479589
:1000F00066E081E40E941705CF91089540E060E03A
:1001000083E40E94A70440E061E083E40E94A70426
:1001100040E062E083E40E94A70440E063E083E4FF
:100120000E94A70441E064E083E40E94A70441E048
:1001300065E083E40E94A70441E066E083E40E9456
:10014000A70441E067E083E40E94A70464E083E43D
:100150000E949B0665E083E40E949B0666E083E4C0
:100160000E949B0667E083E40E949B060895CF925D
:10017000DF92EF92FF920F931F93CF93DF93CDB750
:10018000DEB760970FB6F894DEBF0FBECDBF80E13B
:10019000E0E6F0E0DE01119601900D928A95E1F71C
:1001A000C12CD12CFF24F394EE24EA943EC041E00C
:1001B00060E083E40E94170541E061E083E40E946F
:1001C000170541E062E083E40E94170541E063E027
:1001D00083E40E94170540E06C2D83E40E9417051C
:1001E00000E010E01AC064E0600F83E40E9487051D
:1001F000F82E811110C0C601880F991F880F991F12
:1002000021E030E02C0F3D1F820F931FFC01E00F17
:10021000F11FE08005C00F5F1F4F043011051CF374
:10022000FF2041F03FEFC31AD30A84E0C816D1047F
:100230000CF4BDCF8E2D60960FB6F894DEBF0FBEC6
:10024000CDBFDF91CF911F910F91FF90EF90DF9085
:10025000CF90089541E060E082E40E9417058FE9A5
:100260009FE00197F1F700C0000040E060E082E409
:100270000E9417058FE99FE00197F1F700C0000089
:100280000895CF93C82F482F42954F7061E082E4C4
:100290000E94480640E062E082E40E9417050E9446
:1002A0002A014C2F61E082E40E94480640E062E0AF
:1002B00082E40E9417050E942A018FEC97E00197C3
:1002C000F1F700C00000CF9108952FEF81EE94E088
:1002D000215080409040E1F700C0000040E061E024
:1002E00082E40E94E40540E060E082E40E94A7040A
:1002F00040E061E082E40E94A70440E062E082E422
:100300000E94A70440E061E082E40E94170582E0B9
:100310000E9441018FE19EE40197F1F700C00000C7
:1003200088E20E9441018FEC97E00197F1F700C04D
:1003300000008EE00E9441018FEC97E00197F1F7F9
:1003400000C0000081E00E9441018FE19EE401971E
:10035000F1F700C0000086E00E9441018FEC97E0B9
:100360000197F1F700C000000895CF93C82F482FE0
:1003700042954F7061E082E40E94480641E062E0ED
:1003800082E40E9417050E942A014C2F61E082E45A
:100390000E94480641E062E082E40E9417050E9444
:1003A0002A018FEC97E00197F1F700C00000CF9190
:1003B0000895CF93DF93EC0103C00E94B50121960D
:1003C00088818111FACFDF91CF91089581E00E9459
:1003D00041018FE19EE40197F1F700C0000008950C
:1003E0009FEF980F923078F4662369F0613158F4EA
:1003F000813029F48FE7860F0E94410104C08FEB02
:10040000860F0E9441018FEC97E00197F1F700C041
:100410000000089540E00E94A704089541E00E9472
:100420001705089540E00E94170508958091B000D7
:100430008F5F8093B0008091B0008C3338F01092C1
:10044000B0008091AB008F5F8093AB008091AB00D8
:100450008C3338F01092AB008091AD008F5F8093A9
:10046000AD008091AD00883110F01092AD0008957C
:100470008091B00081110BC08091AB00811107C049
:100480008091AD00811103C081E08093AC00809128
:10049000B00081508093B0008091B1008150809372
:1004A000B1008091B0008F3F41F48BE38093B000A6
:1004B0008091AB0081508093AB008091AB008F3F67
:1004C00041F48BE38093AB008091AD008150809329
:1004D000AD008091AD008F3F19F487E18093AD00AE
:1004E00008958091B0008F5F8093B0008091B1003B
:1004F00081508093B1008091B0008C3338F010921D
:10050000B0008091AB008F5F8093AB008091AB0017
:100510008C3338F01092AB008091AD008F5F8093E8
:10052000AD008091AD00883110F01092AD00909137
:10053000B2008091B00098130FC09091B3008091E9
:10054000AB00981309C09091AE008091AD00981354
:1005500003C081E08093AF0008958091A6008630AB
:1005600011F41092A6008091A6000E946000809174
:10057000A600823081F128F4882359F08130E9F017
:100580006DC0843009F449C0D0F1853009F459C0F8
:1005900065C04091B0008DEC489F812D1124869557
:1005A00086958695880F982F990F990F890F481B6C
:1005B00060E081E40E944D0051C08091B0004DEC9C
:1005C000849F412D112446954695469560E081E42F
:1005D0000E944D0043C04091AB008DEC489F812D9F
:1005E0001124869586958695880F982F990F990FD7
:1005F000890F481B60E081E40E944D002FC080916C
:10060000AB004DEC849F412D1124469546954695AF
:1006100060E081E40E944D0021C04091AD008DEC6E
:10062000489F812D1124869586958695880F982F51
:10063000990F990F890F481B60E081E40E944D00DB
:100640000DC08091AD004DEC849F412D1124469545
:100650004695469560E081E40E944D008091A60099
:100660008F5F8093A6000895CF93DF93D82F0E94C9
:10067000E60180E790E00E94D90167E081E00E94F6
:10068000F0010E94B700C82F2FEF81EE94E02150B7
:1006900080409040E1F700C00000CF3F91F38C2FE5
:1006A0000E94B501D33059F48C2F90E0C097880F89
:1006B000982F990F990F890F8093AE000AC08C2F45
:1006C00090E0C097880F982F990F990F890F80930A
:1006D000AD000E94B700C82F2FEF81EE94E02150AB
:1006E00080409040E1F700C00000CF3F91F38C2F95
:1006F0000E94B501D33039F48091AE00C80FC053C9
:10070000C093AE0006C08091AD00C80FC053C09327
:10071000AD000E94E60189E790E00E94D90169E0FE
:1007200081E00E94F0010E94B700C82F2FEF81EEF8
:1007300094E0215080409040E1F700C00000CF3F9E
:1007400091F38C2F0E94B501D33059F48C2F90E097
:10075000C097880F982F990F990F890F8093B30036
:100760000AC08C2F90E0C097880F982F990F990F8F
:10077000890F8093AB000E94B700C82F2FEF81EE46
:1007800094E0215080409040E1F700C00000CF3F4E
:1007900091F38C2F0E94B501D33039F48091B300CE
:1007A000C80FC053C093B30006C08091AB00C80F00
:1007B000C053C093AB000E94E60184E890E00E9421
:1007C000D90169E081E00E94F0010E94B700C82FC2
:1007D0002FEF81EE94E0215080409040E1F700C07F
:1007E0000000CF3F91F38C2F0E94B501D33059F414
:1007F0008C2F90E0C097880F982F990F990F890F31
:100800008093B2000AC08C2F90E0C097880F982F79
:10081000990F990F890F8093B0000E94B700C82FDD
:100820002FEF81EE94E0215080409040E1F700C02E
:100830000000CF3F91F38C2F0E94B501D33039F4E3
:100840008091B200C80FC053C093B20006C080911F
:10085000B000C80FC053C093B000DF91CF9108958E
:100860000E94D2060E94EA068DEA92E00E94F106FA
:100870000E941D070E94360786E192E00E943D0714
:1008800060E081E40E9449000E9450000E947E00C6
:100890000E94650160E084E40E940A020E94E60171
:1008A0008FE890E00E94D90161E082E00E94F001AF
:1008B0008EE990E00E94D9010E94B700C82F2FEF67
:1008C00081EE94E0215080409040E1F700C00000AC
:1008D0008091AC00813021F08091AF008130A1F493
:1008E0001092AC001092AF008AE08093B10004C077
:1008F00060E084E40E940E028091B1008111F8CF83
:1009000060E084E40E9412028FEC8C0F8330A0F62A
:10091000C13341F481E00E94340386E192E00E94F9
:100920003D07BCCFC23341F482E00E94340388E328
:1009300092E00E943D07B2CFC33309F0AFCF83E00E
:100940000E94340381E792E00E943D07A7CF8234E2
:1009500019F118F4813439F008958334B1F18434F5
:1009600009F44CC0089541110BC02AB381E090E016
:1009700002C0880F991F6A95E2F7822B8ABB0895FF
:100980002AB381E090E002C0880F991F6A95E2F7D0
:10099000809582238ABB089541110BC027B381E063
:1009A00090E002C0880F991F6A95E2F7822B87BBFF
:1009B000089527B381E090E002C0880F991F6A95DF
:1009C000E2F78095822387BB089541110BC024B3C1
:1009D00081E090E002C0880F991F6A95E2F7822BB0
:1009E00084BB089524B381E090E002C0880F991F72
:1009F0006A95E2F78095822384BB089541110BC06C
:100A000021B381E090E002C0880F991F6A95E2F758
:100A1000822B81BB089521B381E090E002C0880F52
:100A2000991F6A95E2F78095822381BB08958234ED
:100A300019F118F4813439F008958334B1F1843414
:100A400009F44CC00895413059F42BB381E090E093
:100A500002C0880F991F6A95E2F7822B8BBB08951D
:100A60002BB381E090E002C0880F991F6A95E2F7EE
:100A7000809582238BBB0895413059F428B381E0DF
:100A800090E002C0880F991F6A95E2F7822B88BB1D
:100A9000089528B381E090E002C0880F991F6A95FD
:100AA000E2F78095822388BB0895413059F425B33D
:100AB00081E090E002C0880F991F6A95E2F7822BCF
:100AC00085BB089525B381E090E002C0880F991F8F
:100AD0006A95E2F78095822385BB0895413059F4E9
:100AE00022B381E090E002C0880F991F6A95E2F777
:100AF000822B82BB089522B381E090E002C0880F70
:100B0000991F6A95E2F78095822382BB089582340B
:100B1000E9F018F4813431F055C0833459F184344C
:100B2000E9F150C049B381E090E09C01062E02C07B
:100B3000220F331F0A94E2F7842F90E0822393233D
:100B400002C0959587956A95E2F7089546B381E0CE
:100B500090E09C01062E02C0220F331F0A94E2F798
:100B6000842F90E08223932302C0959587956A9500
:100B7000E2F7089543B381E090E09C01062E02C0A5
:100B8000220F331F0A94E2F7842F90E082239323ED
:100B900002C0959587956A95E2F7089540B381E084
:100BA00090E09C01062E02C0220F331F0A94E2F748
:100BB000842F90E08223932302C0959587956A95B0
:100BC000E2F7089580E00895823401F118F4813449
:100BD00039F00895833481F1843409F443C00895D1
:100BE00061110AC0411104C08AB38F608ABB0895A5
:100BF0008AB3807F8ABB0895411104C08AB3806F95
:100C00008ABB08958AB38F708ABB089561110AC0A8
:100C1000411104C087B38F6087BB089587B3807F7D
:100C200087BB0895411104C087B3806F87BB0895C7
:100C300087B38F7087BB089561110AC0411104C04A
:100C400084B38F6084BB089584B3807F84BB089590
:100C5000411104C084B3806F84BB089584B38F7046
:100C600084BB089561110AC0411104C081B38F6033
:100C700081BB089581B3807F81BB0895411104C079
:100C800081B3806F81BB089581B38F7081BB08955C
:100C90008234D9F018F4813431F00895833439F175
:100CA0008434B9F10895611107C08BB3807F8BBB89
:100CB0008BB3482B4BBB08954295407F8BB38F700D
:100CC0008BBB8BB3482B4BBB0895611107C088B316
:100CD000807F88BB88B3482B48BB08954295407FEE
:100CE00088B38F7088BB88B3482B48BB08956111C7
:100CF00007C085B3807F85BB85B3482B45BB08956E
:100D00004295407F85B38F7085BB85B3482B45BB2B
:100D10000895611107C082B3807F82BB82B3482BE4
:100D200042BB08954295407F82B38F7082BB82B3ED
:100D3000482B42BB08958234A1F018F4813431F07D
:100D400008958334C9F0843411F108952BB381E000
:100D500090E002C0880F991F6A95E2F7822B8BBB47
:100D6000089528B381E090E002C0880F991F6A952A
:100D7000E2F7822B88BB089525B381E090E002C0A2
:100D8000880F991F6A95E2F7822B85BB089522B3DD
:100D900081E090E002C0880F991F6A95E2F7822BEC
:100DA00082BB089583B7816083BF83B78D7F83BF84
:100DB00083B7846083BF83B78F7B83BF83B788602B
:100DC00083BF83B78F7E83BF83B78F7D83BF8CE361
:100DD0008CBF08958FB780688FBF89B7826089BF45
:100DE00008959093A8008093A70008951F920F92F2
:100DF0000FB60F9211242F933F934F935F936F93EE
:100E00007F938F939F93AF93BF93EF93FF93E09163
:100E1000A700F091A8000995FF91EF91BF91AF91C4
:100E20009F918F917F916F915F914F913F912F9102
:100E30000F900FBE0F901F90189582B5886082BDED
:100E400085B5816085BD85B58D7F85BD85B584609F
:100E500085BD85B58F7B85BD85B5877F85BD85B50E
:100E60008F7E85BD85B58F7D85BD08958FB78068E0
:100E70008FBF89B7806489BF08959093AA0080933B
:100E8000A90008951F920F920FB60F9211242F936D
:100E90003F934F935F936F937F938F939F93AF9302
:100EA000BF93EF93FF93E091A900F091AA000995F9
:100EB000FF91EF91BF91AF919F918F917F916F9132
:100EC0005F914F913F912F910F900FBE0F901F9008
:060ED0001895F894FFCF15
:100ED6003738392F3435362A3132332D41303D2BD0
:100EE600486F7572733A5F5F004D696E757465730E
:100EF6003A5F5F005365636F6E64733A5F5F0031FC
:100F06002D436C6F636B20322D53746F7000332D3D
:060F1600416C61726D00E8
:00000001FF
